:020000040800F2
:10000000C80600200101000837250008A5210008C6
:100010003525000857050008192A000800000000CF
:100020000000000000000000000000003B25000868
:100030008F05000800000000392500083D25000854
:100040001B0100081B0100081B0100081B01000820
:100050001B0100081B0100081B0100081B01000810
:100060001B0100081B0100081B0100081B01000800
:100070001B0100081B0100081B01000859050008AE
:100080001B0100081B0100081B0100081B010008E0
:100090001B0100081B0100081B0100081B010008D0
:1000A0001B010008A12500081B0100081B01000816
:1000B000AD250008B92500081B0100081B01000838
:1000C0001B0100081B0100081B0100081B010008A0
:1000D0001B0100080D2A00081B0100081B01000875
:1000E000910500081B0100081B010008DFF80CD077
:1000F00000F0AEF900480047652A0008C806002055
:100100000648804706480047FEE7FEE7FEE7FEE7B1
:10011000FEE7FEE7FEE7FEE7FEE7FEE79F250008B5
:10012000ED000008202A04DB203A21FA02F0002129
:10013000704721FA02F3D040C2F1200291400843F7
:1001400019467047D2B201E000F8012B491EFBD2DC
:1001500070470022F6E710B513460A4604461946D2
:10016000FFF7F0FF204610BD70B5064602F066FCB2
:10017000046805460A220021304600F09DF82C60F4
:1001800070BD2DE9FE4F81EA030404F0004421F024
:10019000004100944FF0000B23F0004350EA0104AB
:1001A0005ED052EA03045BD0C3F30A54C1F30A558C
:1001B0002C44A4F2F3340194A0FB0254C1F31301C4
:1001C00041F48011C3F3130343F4801301FB024491
:1001D00000FB034E840A970A44EA815447EA835796
:1001E000A4FB076802958D0A05FB07854FEA932C4F
:1001F00004FB0C542705029D4FEA065847EA1637C0
:10020000B5EB08056EEB070C870E920E47EA8117D7
:1002100042EA8312A7FB0201B6EB0B0164EB000478
:100220002B0D43EA0C335E1844EB1C50DA46514662
:10023000E7FB0201C5F313044FEA0B3343EA1453FF
:100240004FEA0432019C43EA0603A4F10C04029431
:10025000009CCDE900B400F0ADF803B0BDE8F08F2C
:1002600000200146F9E70EB540F23341029100212A
:10027000CDE900110A460B4600F09CF803B000BD22
:1002800001F0004330B421F0004150EA010206D0F1
:100290000A0DA2F56072C1F31301002A02DC30BC22
:1002A00000207047440F44EAC104C100E01830BC8C
:1002B00000EBC25000F038B82DE9F04791460F46E8
:1002C00080460446002614F8015B2DB100F0E2F8E8
:1002D0000068405DC007F6D12B2D02D02D2D18D01F
:1002E000641E4A463946204600F0D8F827B13968DE
:1002F000A14201D1C7F8008071054FF002040BD56F
:100300004042002803DD02F099FB0460A007BDE82D
:10031000F08746F48066E4E70028F8DA02F08EFB06
:1003200004606FF00040F2E70029A8BF7047401C4E
:10033000490008BF20F00100704710B4B0FA80FCFB
:1003400000FA0CF050EA010404BF10BC704749B138
:10035000CCF1200421FA04F411FA0CF118BF0121A8
:1003600021430843A3EB0C01CB1D4FEA00614FEA88
:10037000102042BF002010BC704700EBC350104457
:100380000029A4BF10BC7047401C490008BF20F0E2
:10039000010010BC704710B5141E73F1000408DA98
:1003A000401C41F1000192185B411A4301D120F039
:1003B000010010BD2DE9F04D92469B4611B1B1FAF6
:1003C00081F202E0B0FA80F22032904600F052F85A
:1003D00004460F4640EA0A0041EA0B0153465A46DA
:1003E000084313D0114653EA010019D0C8F1400266
:1003F0005046FFF797FE05460E4650465946424680
:1004000000F038F8084305D0012004E020463946C2
:10041000BDE8F08D0020054346EAE0762C433743E3
:100420000A986305E40AA0EB08000022FD0A44EAEA
:1004300047540A3002D500200146E9E701051019AA
:100440006941DDE9084500196941BDE8F04DA2E7C1
:10045000064C074D06E0E06840F0010394E8070011
:1004600098471034AC42F6D3FFF744FE3C2C00080A
:100470005C2C0008202A04DB203A00FA02F100205C
:1004800070479140C2F1200320FA03F319439040D2
:100490007047000000487047382C00082DE9F05FD5
:1004A00082460078002715468B460AF10104B946BA
:1004B000302801D09DB113E014F8010B01277828F2
:1004C00003D0582801D045B10AE00DB1102D07D155
:1004D0000027102514F8010B02E0082500E00A258A
:1004E0000026B0460EE005FB080005FB06F10127DB
:1004F00001EB10461FFA80F8B6F5803F00D3B946ED
:1005000014F8010B294600F018F80028EBDABBF1CB
:10051000000F05D00FB1641E00E05446CBF8004038
:10052000B9F1000F06D002F089FA02210160C81E5D
:10053000BDE8F09F48EA0640FAE73A2800D2303892
:1005400020F02002412A01D3A2F13700884201D3D2
:100550004FF0FF307047FEE7014800F06BB8000035
:100560008002002030B590F840500124AC40C56BAB
:100570006C60046863604368102B036803D0996063
:100580000068C26030BD9A600068C16030BD7047CD
:100590004FF4805000F09CB972B6FEE710B590F8A9
:1005A00021100024022903D00421816301243DE0AD
:1005B00001680A6822F00E020A6001680A6822F0E7
:1005C00001020A601A4A0168914201D1012121E029
:1005D000174A1432914201D110211BE0144A2832EB
:1005E000914201D1891515E0114A3C32914201D165
:1005F00089140FE00E4A5032914202D14FF48031FB
:1006000008E00B4A6432914202D14FF4801101E0BC
:100610004FF08071064A083A5160012180F821109C
:10062000002180F82010416B01B18847204610BDA1
:10063000080002402DE9F05FC16B0C6801680B688F
:10064000D0F840C0042202FA0CF2494DDFF824A190
:10065000494E4A4FDFF828B1DFF828E122422CD07A
:100660005A072AD50A68920603D40A6822F00402BF
:100670000A600168A94201D1042219E0514501D163
:10068000402215E0B14202D14FF4806210E0B9423D
:1006900002D14FF480420BE0594502D14FF4802241
:1006A00006E0714502D14FF4800201E04FF0806214
:1006B0002F4908394A60C16A3BE04FF0020808FA46
:1006C0000CF818EA040F4FF000094FF0010235D082
:1006D0005FEA837832D50B689B0605D40B6823F05C
:1006E0000A030B6080F821200168A94201D102228F
:1006F00019E0514501D1202215E0B14202D14FF459
:10070000007210E0B94202D14FF400520BE059459B
:1007100002D14FF4003206E0714502D14FF40012CD
:1007200001E04FF00072124908394A6080F82090C9
:10073000816A00291AD0BDE8F05F0847082505FA4C
:100740000CF5254212D01B0710D50B6823F00E03C1
:100750000B6090F84010C36B02FA01F1596082639C
:1007600080F8212080F82090016BE2E7BDE8F09F3F
:10077000080002401C0002403000024044000240D9
:10078000580002406C00024030B528B308C8134935
:1007900014221944B1FBF2F18900C163104981634D
:1007A000022141771A6843F6F0718A43D0E90014B8
:1007B0002143D0E902452C43214304692143446984
:1007C00021438469214311431960002141630122BF
:1007D00042770177084630BD012030BDF8FFFDBFEC
:1007E0000000024070B5044690F820000025012862
:1007F0000CD0012084F8200094F821600020012E04
:1008000006D084F820000225284670BD022070BD65
:10081000022684F82160A0632068066826F001069D
:1008200006602046FFF79EFEE06A00282068016807
:1008300002D041F00E0106E021F0040101602068C1
:10084000016841F00A0101602068016841F001017E
:100850000160D9E770B5044600F048F90546601C10
:1008600002D004480078044400F040F9401BA04244
:10087000FAD370BDA000002010B54FF4805188421B
:1008800015D10D4800F020F901280C4810D000F0D7
:100890000BFE0B4C2068FFF7E6FC0A4A0A4BFFF7F9
:1008A00070FCFFF7EDFC094988640020206010BD52
:1008B000BDE8104000F0D0BD000C0140F801002060
:1008C00024080040C3F5285C8FC2C53F000000200B
:1008D000044910B50A68024202D00860FFF7CCFF55
:1008E00010BD0000140401402DE9F84FDFF8B89165
:1008F000002409F1040A0AF1040B23460F270BF127
:10090000040EC9E00125A5402A40AA427DD1674EC8
:10091000D1F804C0ACEB0608B44532D014DCBCF10D
:10092000030F3AD009DCBCF1000F2AD0BCF1010F53
:100930001CD0BCF1020F31D11DE0BCF1110F17D05A
:10094000BCF1120F2AD119E0B8F5881F19D006DCC6
:10095000B8F5803F15D0B8F5801F1FD111E0B8F56C
:10096000001F0ED0B8F5041F18D10AE0CB6815E0BF
:10097000CB681B1D12E0CB6808330FE0CB680C334B
:100980000CE08B682BB1012B4FF0080303D04561BD
:1009900004E0042302E0056100E00023FF2A01D8FF
:1009A000064601E000F104064FEA840501D9A5F1ED
:1009B0002005D6F8008007FA05FC28EA0C0803FA9F
:1009C00005F548EA0508C6F800804D68ED0062D5D7
:1009D000374DAE6946F00106AE61AD6924F00306FD
:1009E00005F001050095334D06EB050CDCF80850C9
:1009F000A607360F07FA06F825EA0805DFF8B880DB
:100A0000404503D14FF0000817E044E0DFF8AC8028
:100A1000404502D14FF001080FE0DFF8A4804045C7
:100A200002D14FF0020808E0DFF89880404502D17B
:100A30004FF0030801E04FF0040808FA06F848EA0E
:100A40000508CCF808804D68D9F80060ED034D46E4
:100A500001D5164300E096432E604D68DAF8006039
:100A6000AD03554601D5164300E096432E604D6810
:100A7000DBF80060ED025D4601D5164300E09643C9
:100A80002E604D68DEF80060AD02754601D5164354
:100A900000E096432E60641C0D682A46E5407FF412
:100AA00031AFBDE8F88F00000004014000001110D4
:100AB000001002400000014000080140000C01400D
:100AC00000100140001401408068084000D001205F
:100AD0007047C26821EA02030A4043EA0241016109
:100AE00070470AB1016170470904FBE7014880685B
:100AF00070470000A000002070B5040025D094F8D5
:100B00003D00002520B984F83C50204600F0B8F89C
:100B1000242084F83D002068016821F00101016073
:100B20002068016841F4004101602068016821F4F7
:100B30000041016000F00AFA4D4A6168914201D813
:100B40004C4900E04C49884201D2012070BD4B491C
:100B50002368B0FBF1F15E6826F03F060E435E604D
:100B60006368934206D94FF4967359434FF47A73EE
:100B7000B1FBF3F12368491C1E6A26F03F0631439E
:100B800019626168914210D84900401EB0FBF1F231
:100B9000521CC2F30B02042A01D2042022E0B0FB53
:100BA000F1F0401CC0F30B001CE0A268F2B301EBB3
:100BB000C10303EB0116431EB3FBF6F35B1C43F4C6
:100BC00080431B0549D092B301EBC10202EB011136
:100BD000401EB0FBF1F0401CC0F30B0040F480401D
:100BE00040F400402168CA694CF6FF739A431043F1
:100BF000C861D4E9071001432068026822F0C002EE
:100C000011430160D4E9030101432068826848F27E
:100C1000FF339A4311438160D4E9050108432168F9
:100C2000CA6822F0FF021043C86001E00EE016E03F
:100C30002068016841F0010101602564202084F8EA
:100C40003D00256384F83E50002070BD01EB410655
:100C5000431EB3FBF6F35B1CB3E70120C2E701EBD5
:100C60004101401EB0FBF1F0401CC0F30B00B7E7A0
:100C7000A086010080841E0000093D0040420F0054
:100C800010B586B000210091019102910391006896
:100C90001349884222D1134CA06940F00800A0619A
:100CA000A069694600F0080004904FF4407000907D
:100CB00012200190032003900B48FFF715FE0B480C
:100CC000416841F0E06141F002014160E06940F4B7
:100CD0000010E061E06900F40010049006B010BD5F
:100CE0000054004000100240000C01400000014090
:100CF000024881680278114481607047A00000209A
:100D0000074810B5016841F010010160032000F0B0
:100D100075F8002000F006F800F024F8002010BD5F
:100D20000020024070B50D4D04464FF47A712878CA
:100D3000B1FBF0F00A490968B1FBF0F000F0ECFA01
:100D400048B9102C07D200222146501E00F036F878
:100D500000206C6070BD012070BD0000A00000206C
:100D6000AC0000200C4808B5816941F001018161A7
:100D7000816901F001010091C16941F08051C161B7
:100D8000C06900F0805000900448416821F0E061A3
:100D900041F00071416008BD0010024000000140B8
:100DA000002809DB00F01F0201219140400980006A
:100DB00000F1E020C0F8001170470000F0B40E4BC5
:100DC0001B680C46C3F30223C3F10705042D00D9A9
:100DD0000425191D072901D2002300E0DB1E01268E
:100DE00006FA05F1491E214099409E40761E1640A4
:100DF0003143F0BC01F011BE0CED00E0064900F0FB
:100E0000070208684FF6FF03184040EA0220034A31
:100E100010430860704700000CED00E00000FA0588
:100E20002DE9F0470F46050061D0434E306800F0D1
:100E30000700B84209D2306820F00700384330601C
:100E4000306800F00700B84251D128683B4C810758
:100E500012D5400703D5606840F4E06060602878F0
:100E6000000703D5606840F4605060606068A9685E
:100E700020F0F000084360602878C00728D0686838
:100E8000012810D02168022810D0890700292EDA05
:100E9000616821F0030101436160FFF727FE80468E
:100EA00041F288390DE021688903EFE78901EDE718
:100EB000FFF71CFEA0EB0801494502D90320BDE85D
:100EC000F0876068696800F00C00B0EB810FEFD12B
:100ED000306800F00700B8420BD9306820F00700F6
:100EE00038433060306800F00700B84201D001207C
:100EF000E5E72878400705D56068E96820F4E060F8
:100F0000084360602878000706D56068296920F4E6
:100F1000605040EAC100606000F038F86168084A3B
:100F2000C1F30311515CC8400649086006480068D7
:100F3000FFF7F8FE0020C2E7002002400010024048
:100F40009C2B0008AC000020A400002004480549A8
:100F500000684968044AC1F30221515CC8407047E7
:100F6000AC00002000100240AC2B000804480549EA
:100F700000684968044AC1F3C221515CC840704707
:100F8000AC00002000100240AC2B000812A185B07C
:100F90000FC98DE80F0014A0144A0068049051682E
:100FA000134801F00C03042B10D0082B0ED1C1F311
:100FB0008343C9031DF803000AD5516804AAC1F38D
:100FC0004041515C0A4A5043B0FBF1F005B0704714
:100FD00008494843FAE70000020304050607080928
:100FE0000A0B0C0D0E0F1010010200000010024041
:100FF00000127A0000093D002DE9F84F040070D07E
:101000002078C04DC00749D06868C0F3810001282E
:1010100007D06868C0F38100022809D16868C0035E
:1010200006D52868800339D560680028E7D035E008
:101030006068B0F5803F0BD010B1B0F5A02F11D093
:10104000286820F480302860286820F4802002E09E
:10105000286840F480302860606890B1FFF746FD52
:1010600006460AE0286840F480202860F0E700BFC8
:10107000FFF73CFD801B642873D828688003F7D5F0
:101080000CE0FFF733FD064605E000BFFFF72EFD3D
:10109000801B6428F0D828688003F7D420789A4E03
:1010A00080074FF001094FF0000839D5686810F04B
:1010B0000C0F07D06868C0F38100022809D1686866
:1010C000C00306D42868800714D52069012808D1F8
:1010D00010E02069B0B1C6F80090FFF707FD0746A1
:1010E00005E00AE1FFF702FDC01B0228C4D828680A
:1010F0008007F7D52868616920F0F80040EAC10050
:1011000028600DE0C6F80080FFF7F0FC074604E019
:10111000FFF7ECFCC01B022823D828688007F7D40F
:10112000207800072CD57948A169D9B1C0F8009082
:10113000FFF7DCFC074604E0FFF7D8FCC01B0228E1
:101140000FD8686A8007F7D571484FF4FA510068E4
:10115000B0FBF1F0009000BF0098411E0091FAD260
:101160000EE080E0C0F80080FFF7C0FC074604E016
:10117000FFF7BCFCC01B022875D8686A8007F7D44B
:101180002078400760D5E8690027C00008D4E869E6
:1011900040F08050E861E869012700F0805000903D
:1011A0005C480168C90513D40168834641F4807125
:1011B0000160FFF79BFC824606E000BFFFF796FC4C
:1011C000A0EB0A0064284ED8DBF80000C005F5D576
:1011D000E06801280AD008B1052813D0286A20F059
:1011E00001002862286A20F0040002E0286A40F02A
:1011F00001002862E06841F2883B98B1FFF776FC75
:1012000082460BE0286A40F004002862EEE700BF47
:10121000FFF76CFCA0EB0A0159455AD8286A8007F1
:10122000F6D50CE0FFF762FC824605E0FFF75EFCB6
:10123000A0EB0A0159454CD8286A8007F6D41FB1A3
:10124000E86920F08050E861E06988B36968C1F31B
:101250008101022944D00228C6F8608004D0FFF73B
:1012600045FC044638E034E0FFF740FC074604E064
:10127000FFF73CFCC01B02282BD828688001F7D45C
:10128000206AB0F5803F05D16868A16820F400307D
:1012900008436860D4E908010843696821F47411BF
:1012A00008436860C6F86090FFF720FC044606E03B
:1012B00025E000BFFFF71AFC001B022809D82868A8
:1012C0008001F7D51BE000BFFFF710FC001B0228D0
:1012D00002D90320BDE8F88F28688001F4D40EE01D
:1012E0000128F7D06868226A00F48031914204D165
:1012F000616A00F47010884201D00120EAE7002002
:10130000E8E7000000100240000042428004424230
:10131000AC0000200070004010B5401EB0F1807F8E
:1013200001D3012010BD4FF0E02460610F21601750
:1013300001F073FB0020A06107202061002010BD98
:101340007047704770B590F83C20012A26D00124E0
:1013500080F83C40022280F83D2003685A689D686E
:1013600022F070060A6832435A600D4B02689A42B6
:1013700008D0B2F1804F05D00A4B9A4202D00A4BF6
:101380009A4204D1496825F080031943916080F89E
:101390003D40002180F83C10084670BD022070BD21
:1013A000002C0140000400400008004010B504007B
:1013B00003D094F83D0010B107E0012010BD0020DB
:1013C00084F83C00204600F01FF8022084F83D001D
:1013D000211D206801F0F6F8012084F8460084F809
:1013E0003E0084F83F0084F8400084F8410084F80F
:1013F000420084F8430084F8440084F8450084F8EF
:101400003D00002010BD000008B501681048B1F192
:10141000804F0BD00F4A914207D1C16941F00401BE
:10142000C161C06900F00400009008BDC16941F0CD
:101430000101C161C069002200F00100009001219A
:101440001C20FFF7BBFCBDE808401C20FFF7A8BC30
:10145000001002400008004090F83D10012901D022
:1014600001207047022180F83D1000680B49884236
:1014700008D0B0F1804F05D00949884202D009490F
:10148000884204D1816801F00701062903D0016870
:1014900041F001010160002070470000002C014074
:1014A000000400400008004001680A6A41F211137C
:1014B0001A4207D10A6A9B101A4203D10A6822F025
:1014C00001020A60012180F83D100020704770B5CC
:1014D000044690F83C00012817D0012584F83C50C0
:1014E000022084F83D002068826822F0770222F40E
:1014F0007F4282600868502830D00DDC20284DD013
:1015000005DC98B310283BD148E0022070BD30289C
:1015100044D0402834D139E0602828D0702806D043
:10152000B0F5805F2CD0B0F5005F29D10AE0CB6820
:10153000D1E90121206801F088F82068816841F034
:10154000770109E0CB68D1E90121206801F07DF83D
:101550002068816841F48041816011E0CA6849686F
:10156000206801F027F95021206807E016E0CA68DA
:101570004968206801F02FF96021206801F06FF8B8
:1015800084F83D50002084F83C0070BDCA6849686A
:10159000206801F00FF940212068EFE7226801463A
:1015A0001046EBE72DE9F0410D46040003D094F816
:1015B0003D0018B108E00120BDE8F081002084F86A
:1015C0003C00204600F040F8022084F83D002068EE
:1015D000816844F2070291438160211D206800F078
:1015E000F1FF226890689169166A2B68AF6903431E
:1015F00040F20330814341EA0721A868EF690843BC
:101600004FF6FC418843E96840EA07200143286916
:101610002F6A000140EA0730084369686D6926F0C7
:10162000220646EA0515294393602268906154F822
:10163000460B0162012004F81F09E0752076E07670
:101640002077A0750020B7E700B585B00021009194
:10165000019102910391274A0168274891421DD1C7
:10166000816941F400618161816901F40061049143
:10167000816941F0040181618069694600F00400DC
:1016800004904FF4407000901C48FFF72DF90022A1
:1016900011461920FFF792FB192027E0184A9142C2
:1016A00026D1C16941F00201C161C16901F00201A5
:1016B0000491816941F0080181618069694600F007
:1016C00008000490302000900E48FFF70DF90E48F6
:1016D000416821F4406141F0E06141F40061416002
:1016E000002202211D20FFF769FB1D20FFF758FB98
:1016F00005B000BD002C0140001002400008014070
:1017000000040040000C01400000014070B590F85A
:101710003E60044690F83F5090F8423090F84320E5
:10172000022021B1042914D0012E25D11EE0012E62
:1017300022D1012B20D184F83E0084F842000122FE
:101740000021206800F074FF2068C16841F00201A8
:101750002FE0012D10D1012A0ED184F83F0084F82A
:1017600043000421206800F063FF1EE0012D03D137
:10177000012B01D1012A01D0012070BD84F83E0067
:1017800084F83F0084F8420084F8430001220021DD
:10179000206800F04DFF01220421206800F048FF7E
:1017A0002068C16841F00201C1602068C16841F051
:1017B0000401C1602068016841F00101016000205E
:1017C00070BD704770B50446006801694FF00005B0
:1017D000C943890715D4C168C943890711D4E91ED3
:1017E000016101202077206880698007204602D0AF
:1017F000FFF7E7FF04E000F0BDF8204600F04CF9E9
:10180000257720680169C943490717D4C168C943CE
:10181000490713D46FF0040101610220207720688A
:10182000806910F4407F204602D0FFF7CAFF04E031
:1018300000F0A0F8204600F02FF925772068016914
:10184000C943090716D4C168C943090712D46FF008
:1018500008010161042020772068C06980072046C4
:1018600002D0FFF7AEFF04E000F084F8204600F05D
:1018700013F9257720680169C943C90617D4C168DF
:10188000C943C90613D46FF0100101610820207705
:101890002068C06910F4407F204602D0FFF791FF16
:1018A00004E000F067F8204600F0F6F8257720689D
:1018B0000169C943C90708D1C168C943C90704D12F
:1018C000891E0161204600F083FA20680169C9433E
:1018D000090609D4C168C943090605D46FF080011F
:1018E00001612046FFF72CFD20680169C9434906C4
:1018F00009D4C168C943490605D46FF040010161AC
:10190000204600F079FA20680169C94389060BD4A2
:10191000C168C943890607D46FF0200101612046E0
:10192000BDE87040FFF70DBD70BD000000B585B08B
:10193000002100910191029103910068B0F1804F64
:1019400011D10A48816941F00401816180696946C9
:1019500000F0040004900320009002200190039006
:101960000348FEF7C1FF05B000BD000000100240B3
:1019700000080140704770B5044690F83C000D46E1
:1019800001280AD0012084F83C0042B1042A18D072
:10199000082A2AD00C2A4DD139E0022070BD2068D7
:1019A00000F066FE2068816941F0080181612068CD
:1019B000816921F004018161206881692A691143EC
:1019C00011E0206800F07CFE2068816941F400612C
:1019D00081612068816921F4806181612068816969
:1019E0002A6941EA0221816124E0206800F094FE26
:1019F0002068C16941F00801C1612068C16921F016
:101A00000401C1612068C1692A69114311E020689D
:101A100000F0AEFE2068C16941F40061C161206838
:101A2000C16921F48061C1612068C1692A6941EA04
:101A30000221C161002084F83C0070BD10B5040093
:101A400003D094F83D0010B107E0012010BD002044
:101A500084F83C00204600F01EF8022084F83D0087
:101A6000211D206800F0AEFD012084F8460084F8B6
:101A70003E0084F83F0084F8400084F8410084F878
:101A8000420084F8430084F8440084F8450084F858
:101A90003D00002010BD70472DE9F04100684FF077
:101AA0008047B8427AD16E4C2078401CC0B220707A
:101AB0000A2873D96B48002525700068406AE064E5
:101AC0002246A1685378126D002902DBC3EB034361
:101AD00001E0A3EB034303449A1AC4E914026248E9
:101AE00065700068406A5E4AE066666A9378126FC5
:101AF000002E02DBC3EB034301E0A3EB03430344EB
:101B00009A1AC4E91C02594EA57000290CDB002268
:101B100004213046FEF7E5FF012208213046FEF79A
:101B2000E0FF616DA0680BE0012204213046FEF762
:101B3000D8FF002208213046FEF7D3FFA168606D70
:101B4000401AA0652269E16D02FB0012E265216E78
:101B50006369411A59436166A3699A4201DC1346DD
:101B600000E0E365E269934200DAE265226A9142AD
:101B700000DD6266636E51428B4201DB194600E074
:101B80006166E26D48F6A0481144E26802FB00106D
:101B9000A066404503DDC4F8688003E05DE00028EE
:101BA00000DAA566A06800B9A566A06E002800DA74
:101BB00040427863606A00280CDB00221021304626
:101BC000FEF78FFF012220213046FEF78AFF616F6A
:101BD000606A0BE0012210213046FEF782FF0022EE
:101BE00020213046FEF77DFF616A606F401AA067D2
:101BF000D4E91E10E26A02FB01031948E367803052
:101C0000266B02688A1A72434260666BB34201DC3B
:101C10001E4600E0E667A36B9E4200DAE367E36BD3
:101C20009A4200DD436046685A42964201DB3246E2
:101C300000E04260E36F1A44A36A03FB0121816064
:101C4000414502DDC0F8088002E0002900DA856025
:101C5000616A01B985608168B963BDE8F0810000FF
:101C60000000002020010020B001002000080140F9
:101C700010B50446022249B104290ED0082913D018
:101C800094F84100012816D0012010BD94F83E00C0
:101C90000128F9D184F83E200FE094F83F00012894
:101CA000F2D184F83F2008E094F840000128EBD1FD
:101CB00084F8402001E084F841200122206800F0EF
:101CC000B7FC0F492068884203D1426C42F40042BD
:101CD00042642068884208D0B0F1804F05D009499D
:101CE000884202D00849884204D1816801F0070186
:101CF000062903D0016841F001010160002010BDF8
:101D0000002C0140000400400008004010B50446CB
:101D1000022249B1042912D008291CD094F84100AC
:101D2000012823D0012010BD94F83E000128F9D1EC
:101D300084F83E202068C26842F0020209E094F86C
:101D40003F000128EED184F83F202068C26842F0AD
:101D50000402C2600EE094F840000128E2D184F849
:101D600040202068C26842F00802F2E784F841206F
:101D70000C2922D00122206800F05AFC1149206869
:101D8000884203D1426C42F4004242642068884297
:101D900008D0B0F1804F05D00B49884202D00B49E2
:101DA000884204D1816801F00701062903D0016847
:101DB00041F001010160002010BD2068C26842F0BE
:101DC0001002C6E7002C014000040040000800405B
:101DD0000068064B0121064A984201D151707047B4
:101DE000044B9842FBD1917070470000002C0140D9
:101DF00000000020000400407047704770B5026882
:101E000004461068D168536910F00F0F52D003F0E8
:101E1000010501F490762E435FD0C20705D0CA05B4
:101E200003D5E26B42F00102E263420705D5DA070F
:101E300003D0E26B42F00202E263820705D5DA07C3
:101E400003D0E26B42F00402E263020707D501F01F
:101E500020022A4303D0E26B42F00802E263E26B05
:101E6000002A33D0800604D5880602D5204600F02B
:101E70002BFD20684069E16BC0F38010090700D496
:101E800028B3204600F009FD2068416949061AD5AB
:101E9000416921F040014161606BA0B12D4941636E
:101EA000606BFEF77BFB002810D0606B416BBDE8D8
:101EB00070400847830610D58B060ED52046BDE836
:101EC000704000F001BD2046FFF797FF70BD20462F
:101ED000FFF793FF0020E06370BD03062BD50B06D0
:101EE00029D594F839002128F6D1A068B0F5805F93
:101EF00001D12069B0B1206A411C216221680078BB
:101F00004860E08C401E0004000CE084E4D12068AE
:101F1000C16821F08001C1602068C16841F04001C2
:101F2000C16070BD206A0088C0F308005060206A5C
:101F3000801C2062E5E74006F3D54806F1D5D1685C
:101F4000204621F04001D160202184F8391000F0B2
:101F500028F970BDFB27000870B5040004D094F880
:101F60003900002510B106E0012070BD84F838501A
:101F7000204600F023F8242084F839002068C16846
:101F800021F40051C160204600F0E4FC20680169A2
:101F900021F4904101612068416921F02A014161E9
:101FA0002068C16841F40051C160E563202084F8D5
:101FB000390084F83A00002070BD0000F0B585B00B
:101FC0000025064600950195029503950068254970
:101FD000884245D12448816941F480418161816909
:101FE00001F480410491816941F0080181618069B7
:101FF0001E4C00F008000490402000900220019048
:102000000320039069462046FEF76EFC8027CDE949
:102010000075694620460295FEF766FC1448416843
:1020200041F0E06141F004014160134C1148C4E902
:102030000005C4E9025720202561C4E90550204667
:10204000E561FEF7A1FB08B1FEF7A6FA7463002272
:10205000114625206662FEF7B1FE2520FEF7A0FEA0
:1020600005B0F0BD0038014000100240000C0140F6
:10207000000001405800024080020020F8B50446EC
:1020800090F83A0020283CD1C1B3BAB394F8380094
:10209000012836D0012084F83800A162A2850025ED
:1020A000E563222084F83A00636B17489862636BFB
:1020B0001648D862636B16481863606B1346456315
:1020C0000846666B216802463046091DFEF78AFB0A
:1020D000206801684168009184F83850C16841F473
:1020E0008071C1602068416941F00101416120684F
:1020F000416941F0400141610020F8BDFFE7012046
:10210000FBE70220F9E700005528000891280008A5
:102110000B2800082DE9F0411F4C204EA078F070EC
:1021200020793071002006F19807215C3954401C59
:102130000628FADB19489830FEF716F8174D803557
:10214000E86006203A18215C401C02F8061C0C28A6
:10215000F8DB12489830FEF707F828610C203A188F
:10216000215C401C02F80C1C1228F8DB0B4898304C
:10217000FDF7FAFF686129694FF41672914201DD9B
:102180002A6101E0192902DDE968716201E000209D
:102190007062B060BDE8F081B40000200000002053
:1021A00070477047FEE70000094808B5416941F0F3
:1021B000010141614069002200F0010000901146D8
:1021C0000F20FEF7FBFDBDE808400F20FEF7E8BD3D
:1021D000001002402DE9F04786B0002436480094F4
:1021E000019402940394816941F010018161816935
:1021F00001F010010491816941F020018161816940
:1022000001F020010491816941F00401816181693B
:1022100001F004010491816941F008018161806944
:10222000DFF8988000F008004FF460450490002229
:1022300029464046FEF755FCDFF8849000223C21F9
:102240004846FEF74EFCDFF87CA04FF40067002202
:1022500039465046FEF745FC0095022601250396B7
:10226000CDE9015469464046FEF73EFB3C20CDE9EE
:102270000005CDE9024669464846FEF735FB009762
:102280000396CDE9015469465046FEF72DFB28031D
:1022900000900D48CDE9010469465046FEF724FB45
:1022A000002211462820FEF789FD2820FEF778FD40
:1022B00006B0BDE8F08700000010024000100140A9
:1022C00000080140000C0140000031100D4810B51D
:1022D0000B4901600C49416000214FF4804281604C
:1022E000C0E9031241618161C1610162FEF704FC32
:1022F000002803D0BDE81040FEF74EB910BD000025
:1023000000540040CC000020801A060010B58CB0AC
:1023100024216846FDF71DFF00241748099415493C
:102320000A94C0E900144FF6FF71C0E90241802110
:102330000461C0E905410320CDE900040120CDE995
:1023400002040F210491CDE90540CDE9074169461A
:102350000948FFF727F908B1FEF71EF9099409A902
:1023600005480A94FEF7EEFF002801D0FEF714F9A5
:102370000CB010BD002C01402001002010B58EB023
:1023800000240794089409940A940B941C2168462D
:102390000C94FDF7DEFE22484FF0804101600121E0
:1023A000C0E9011448F69F41C0E90314802181610E
:1023B000FEF7FCFF08B1FEF7EFF84FF480500790EE
:1023C00007A91748FFF783F808B1FEF7E5F81448A6
:1023D000FFF734FB08B1FEF7DFF80B940BA91048A8
:1023E0000C94FEF7AFFF08B1FEF7D6F86020CDE9F8
:1023F000000402940022694609480494FFF7BBFADE
:1024000008B1FEF7C9F8042269460548FFF7B3FA98
:1024100008B1FEF7C1F80248FFF788FA0EB010BD08
:102420006801002010B58CB024216846FDF791FEAC
:1024300000241748099415490A94C0E900144FF67E
:10244000FF71C0E902418021046181610320CDE96F
:1024500000040120CDE902040F210491CDE90540DB
:10246000CDE9074169460A48FFF79CF808B1FEF735
:1024700093F8099409A906480A94FEF763FF002817
:1024800001D0FEF789F80CB010BD00000004004038
:10249000B001002010B586B00024174800940194C4
:1024A00002940394049413490594016040F2CF21EF
:1024B000C0E901144EF27861C0E903148461FEF7AB
:1024C00075FF08B1FEF768F84FF480500090694638
:1024D0000948FEF7FCFF08B1FEF75EF8049404A972
:1024E00005480594FEF72EFF002801D0FEF754F8AA
:1024F00006B010BD00080040F80100200C4810B5DF
:102500000A4901604FF416514160002181600C229C
:10251000C160C0E904128161C161FFF71DFD00289F
:1025200003D0BDE81040FEF737B810BD00380140B9
:1025300040020020FEE7FEE770477047FEF7D8BB79
:1025400030B58FB028216846FDF703FE14210AA894
:10255000FDF7FFFD01210804CDE9001000240294DD
:1025600002250491CDE907504FF4E0100990684628
:10257000FEF742FD08B172B6FEE70F20CDE90A056D
:102580004FF48060CDE90C4002210AA80E94FEF7BA
:1025900047FC002801D072B6FEE70FB030BD70478F
:1025A0000148FFF70FB90000200100200148FFF7A4
:1025B00009B90000680100200148FFF703B90000D5
:1025C000B0010020F0B50268164B174C174D4FF0C4
:1025D0008047984205D0B84203D0A04201D0A8421B
:1025E00003D122F070064A683243984205D0B842BF
:1025F00003D0A04201D0A84203D122F44074CA689B
:1026000022434C6922F08002224302608A68C2623F
:102610000A688262984201D109690163012141611E
:10262000F0BD0000002C0140000400400008004004
:1026300010B501F01F030121046A99408C43046224
:10264000016A9A401143016210BD10B5846842EAE4
:10265000032224F47F440A432243826010BD82682F
:1026600022F070020A4342F00701816070470000C7
:1026700030B5026A22F001020262026A436884698C
:1026800024F073050C682C4322F002058A682A4363
:102690000A4DA8420BD122F00805CA6823F4407302
:1026A0002A434D6922F004021D438B692B4343608A
:1026B000846149684163026230BD0000002C014022
:1026C00030B5026A22F010020262026A436884692D
:1026D0000D6824F4E64444EA05248D6822F02002C3
:1026E00042EA05120B4DA8420ED1CD6822F08002BD
:1026F00042EA05124D6923F4406343EA85038D697C
:1027000022F0400243EA85034360846149688163A3
:10271000026230BD002C014030B5026A22F48072A2
:102720000262036A4268C46923F4007324F07305EB
:102730000C682C438D6843EA05230C4DA8420ED14A
:10274000CD6823F4006343EA05234D6922F4405227
:1027500042EA05128D6923F4806342EA0512426061
:10276000C4614968C163036230BD0000002C0140B0
:1027700030B5026A22F480520262046A4268C36978
:102780000D6823F4E64343EA05238D6824F40054DE
:1027900044EA0534064DA84204D14D6922F4804232
:1027A00042EA85124260C36149680164046230BD37
:1027B000002C014010B5036A046A24F0010404628D
:1027C000846924F0F00444EA021423F00A020A4364
:1027D0008461026210BD10B5036A23F01003036226
:1027E0008369046A23F4704343EA023224F0A003AD
:1027F00043EA01118261016210BD10B5406A0021F7
:10280000C185C184FFF7F9FA10BD70B5446A20682C
:10281000406994F83910C0F3C0100025212904D173
:1028200018B1E584204600F046F82068406994F825
:102830003A10C0F38010222904D118B1E585204652
:1028400000F02BF8E06B40F01000E0632046FFF74B
:10285000D4FA70BD10B50146406A09680968890656
:1028600013D40021C1850168CA6822F48072CA604D
:1028700001684A6922F001024A6101684A6922F04E
:1028800040024A61202180F83A10FFF743FC10BD56
:1028900010B5406AFFF784FC10BD0168CA6822F4D5
:1028A0009072CA6001684A6922F001024A612021DF
:1028B00080F83A1070470168CA6822F0C002CA6006
:1028C000202180F83910704710B590F83A1022296D
:1028D00001D0022010BD82684FF480539A4201D18A
:1028E000016921B1816A9A421BD04AB10AE00268AB
:1028F000816A5268C2F308020A80816A891C08E072
:10290000026972B10268526802F07F020A70816A3D
:10291000491C8162C18D491E0904090CC18503D07F
:1029200016E002685268F1E70168CA6822F02002E6
:10293000CA600168CA6822F48072CA6001684A6984
:1029400022F001024A61202180F83A10FFF7E2FBF1
:10295000002010BD70B5044600680169E26821F4EA
:102960004051114301612169A0680843616908432E
:102970002168CA6841F20C639A430243CA60206826
:102980004169A26921F44071114341611E492068E7
:10299000884202D1FEF7EAFA01E0FEF7D7FA00EB2F
:1029A000C00101EB0012606864218000B2FBF0F30B
:1029B000B3FBF1F36FF018067343B2FBF0F5B2FB13
:1029C000F0F605EB8305322303EB0515B5FBF1F5B6
:1029D000B6FBF1F605F0F00505EB0615B2FBF0F6D7
:1029E000B2FBF0F0B0FBF1F06FF01802504306EBD1
:1029F000800003EB0010B0FBF1F0216800F00F0045
:102A00002844886070BD0000003801400148FFF78D
:102A1000F5B9000040020020FEE70907090E002872
:102A200004DB00F1E02080F80014704700F00F0094
:102A300000F1E02080F8141D704700000048704746
:102A4000B000002002E008C8121F08C1002AFAD115
:102A500070477047002001E001C1121F002AFBD11E
:102A600070470000FEF74CF9FFF76AFDFFF7B2FB75
:102A7000FFF79AFBFFF74AFCFFF7D4FCFFF77EFC59
:102A8000FFF708FDFFF722FCFFF738FD39484168E2
:102A900041F4806141600417374801680C610068A7
:102AA000C16841F00101C16000213348FEF72EFEEC
:102AB00004213148FEF72AFE304801680C610068A5
:102AC000C16841F00101C16000212C48FEF71EFEE3
:102AD00004212A48FEF71AFE00212948FFF716F9BB
:102AE00004212748FFF7C4F8264C4FF08045606C5E
:102AF0006863254E002204213046FDF7F2FF0122D3
:102B000008213046FDF7EDFF206CA863002210215C
:102B10003046FDF7E6FF012220213046FDF7E1FFB8
:102B200012221A491A48FFF7A9FA6F14194D1A4CC4
:102B30004FF480484FF40049EE1439462846FDF71B
:102B4000C8FF41462846FDF7C4FF49462846FDF721
:102B5000C0FF6420FDF77EFE012231462046FDF7CE
:102B6000C0FF0120FDF776FE002231462046FDF72A
:102B7000B8FFE2E7002004E020010020B0010020BF
:102B8000680100200000002000080140B40000207F
:102B90004002002000100140000C01400000000035
:102BA00000000000010203040607080900000000FD
:102BB0000102030400404040404040404040414149
:102BC0004141414040404040404040404040404002
:102BD000404040404005020202020202020202029C
:102BE0000202020202202020202020202020200299
:102BF0000202020202029090909090901010101029
:102C000010101010101010101010101010101010C4
:102C10000202020202028888888888880808080858
:102C20000808080808080808080808080808080824
:102C30000202020240000000B52B00085C2C0008D4
:102C400000000020B4000000442A0008102D0008F5
:102C5000B400002014060000542A00080000000000
:102C60000000000000000000FA0000000500000065
:102C7000010000005046000028230000D00700009B
:102C800000000000FA000000050000000100000044
:102C90005046000028230000D0070000000000007C
:102CA0000000000000000000000000000000000024
:102CB0000000000000000000000000000000000014
:102CC0000000000000000000000000000000000004
:102CD00000000000000000000000000000000000F4
:102CE00000000000000000000000000000000000E4
:102CF00000000000000000000000000001000000D3
:102D000010000000000000000024F400000000009B
:04000005080000ED02
:00000001FF
